S00E00006275696C642F332E73313974
S3152000000037C10120EF00501C9702000093820203A3
S31520000010970000009380000273901234372300006B
S315200000201303038013630308731003307300203017
S31520000030EF00103E6F000000130101FE232E110079
S31520000040232C810013040102B7470020138507BC27
S31520000050EF10C07F232604FEB74700201385C7BDB7
S31520000060EF104069B747002023A207EAEF000029D6
S31520000070B747002003A747EA9307A0026310F702B9
S31520000080B7470020138507BFEF10407C8327C4FEA7
S31520000090938717002326F4FE6F00C001B747002080
S315200000A083A747EA93850700B7470020138587BFB4
S315200000B0EF104064B74700201385C7C0EF10806358
S315200000C0B74700201307B00723A2E7EAEF008024F2
S315200000D0130705009307B0076310F702B747002000
S315200000E0138507BFEF1080768327C4FE93871700FA
S315200000F02326F4FE6F000001B7470020138507C2B0
S31520000100EF10C074B7470020138587C2EF10805EBA
S31520000110B70701202324F4FEB70701209387470061
S315200001202322F4FE832784FE1307A00223A0E700E0
S31520000130832744FE23A00700EF00801E832744FE6A
S3152000014003A707009307A0026310F702B747002012
S31520000150138507BFEF10806F8327C4FE9387170090
S315200001602326F4FE6F000001B7470020138507C23F
S31520000170EF10C06DB74700201385C7C3EF10805717
S31520000180B747002023A207EA1305D004EF00401A40
S31520000190B747002003A747EA9307D0046310F70266
S315200001A0B7470020138507BFEF10406A8327C4FE98
S315200001B0938717002326F4FE6F000001B74700201F
S315200001C0138507C2EF108068B7470020138507C53F
S315200001D0EF104052B74700201307400123A2E7EA59
S315200001E0EF00C015130705009307A0026310F7025E
S315200001F0B7470020138507BFEF1040658327C4FE4D
S31520000200938717002326F4FE6F00C001EF0000132A
S315200002109307050093850700B7470020138587BFFE
S31520000220EF10404DB7470020138547C6EF10804C8E
S31520000230EF00C011130705009307B0FF6310F70204
S31520000240B7470020138507BFEF1040608327C4FE01
S31520000250938717002326F4FE6F00C001EF00000FDE
S315200002609307050093850700B7470020138587BFAE
S31520000270EF104048B7470020138587C7EF10804707
S31520000280B797FFFF138507ADEF00000D1307050095
S31520000290B70701006310F702B7470020138507BF91
S315200002A0EF10C05A8327C4FE938717002326F4FE37
S315200002B06F004002B797FFFF138507ADEF00C00917
S315200002C09307050093850700B7470020138587BF4E
S315200002D0EF1040428325C4FEB74700201385C7C8C8
S315200002E0EF10404193070000138507008320C101CA
S315200002F00324810113010102678000009742000058
S31520000300938282BA9302A00217430000230E53B8A9
S315200003106780000017450000030505B967800000C7
S31520000320B702012003A3020023A262006780000017
S315200003309742000023AAA2B66780000097420000D9
S3152000034083A282B6138562016780000017450000EC
S315200003500305C5B5678000009742000083D242B5E9
S315200003603385A24067800000130101FE232E110071
S31520000370232C810013040102232604FE232404FED9
S31520000380B717024003A70700B717024013671700E5
S3152000039023A0E700B71702409387470083A60700EC
S315200003A0B7170240938747003707FFF833F7E60071
S315200003B023A0E700B717024083A60700B71702401D
S315200003C03707F7FE1307F7FF33F7E60023A0E7000A
S315200003D0B717024083A60700B71702403707FCFF6E
S315200003E01307F7FF33F7E60023A0E700B71702400D
S315200003F09387470083A60700B717024093874700D5
S31520000400370781FF1307F7FF33F7E60023A0E7003E
S31520000410B717024083A60700B7170240370700EC3C
S315200004201307F7FF33F7E60023A0E700B7170240CC
S31520000430938787003707FF0023A0E700B7170240FE
S315200004409387C70223A00700B717024083A6070099
S31520000450B71702403707010033E7E60023A0E7007D
S31520000460B717024003A70700B7070200B377F700C4
S315200004702324F4FE8327C4FE938717002326F4FE45
S31520000480832784FE639807000327C4FE9307401F33
S31520000490E318F7FCB717024003A70700B7070200C7
S315200004A0B377F70063960700930710006F00C0111B
S315200004B0B717024013874700B717024093874700B4
S315200004C00327070023A0E700B7170240138747003A
S315200004D0B7170240938747000327070023A0E700AA
S315200004E0B71702409387C70203A70700B717024032
S315200004F09387C7021367074023A0E700B717024078
S315200005009387470083A60700B717024093874700C3
S315200005103707C1FF1307F7FF33F7E60023A0E700ED
S31520000520B71702409387470083A60700B7170240F4
S31520000530938747003707010033E7E60023A0E7004B
S31520000540B717024083A60700B717024037070001F6
S3152000055033E7E60023A0E70013000000B7170240A8
S3152000056003A70700B7070002B377F700E38807FE63
S31520000570B71702409387470003A70700B717024023
S31520000580938747001377C7FF23A0E700B7170240DA
S315200005909387470003A70700B717024093874700B2
S315200005A01367270023A0E70013000000B7170240B7
S315200005B09387470083A7070013F7C7009307800098
S315200005C0E316F7FE93070000138507008320C10179
S315200005D0032481011301010267800000130101FD3C
S315200005E02326110223245102232281022320A10241
S315200005F0232EB100232CC100232AD1002328E10079
S315200006002326F1002324010113040103B717004018
S3152000061083D707011397070113570701B717004020
S315200006201377E7FF13170701135707012398E700EE
S31520000630B747002003A707F183A747F1130510004A
S31520000640930500003306A700130806003338E80098
S31520000650B386B700B307D8009386070013070600B2
S3152000066093870600B746002023A8E6F023AAF6F0D3
S31520000670130000008320C102832281020324410249
S31520000680032501028325C101032681018326410119
S31520000690032701018327C1000328810013010103D9
S315200006A073002030130101FE232E1100232C81001C
S315200006B0130401022326A4FEB747002003A707F14F
S315200006C083A747F18327C4FE23A2E7008327C4FE1E
S315200006D003A747008327C4FE23A0E700B7470020CF
S315200006E003A707F183A747F19307070013850700A0
S315200006F08320C101032481011301010267800000C8
S31520000700130101FD23261102232481021304010370
S31520000710232EA4FC232CB4FCB747002003A707F103
S3152000072083A747F12324E4FE2326F4FE032784FE31
S315200007308327C4FE13064006930600001305070010
S3152000074093850700EF008076130705009387050041
S315200007508326C4FD23A0E60023A2F600032784FEF9
S315200007608327C4FE130640069306000013050700E0
S3152000077093850700EF005032130705009387050085
S315200007808327C4FD23A4E7009307000013850700F1
S315200007908320C10203248102130101036780000024
S315200007A0130101FE232E1100232C810013040102C4
S315200007B02326A4FE2324B4FE8327C4FE03A7070012
S315200007C083A74700930540063385B70293050000AB
S315200007D0B305B7023305B500930540063303B702C8
S315200007E0B338B70213080300B3071501938807002F
S315200007F01307080093870800B745002023A8E5F0D3
S3152000080023AAF5F08327C4FE83A787001386070053
S3152000081093D7F74193860700B747002003A507F132
S3152000082083A547F13307A600130807003338C8000D
S31520000830B387B600B306F80093870600B7460020B4
S3152000084023A8E6F023AAF6F09307000013850700F5
S315200008508320C10103248101130101026780000066
S31520000860130101FF23261100232481001304010113
S31520000870B74701409387078083D7070093970701DF
S3152000088093D7070193F7070263800702B747014012
S315200008909387078083D747009397070193D707014C
S315200008A093F7F70F6F00800093070000138507006A
S315200008B08320C10003248100130101016780000009
S315200008C0130101FE232E1100232C810013040102A3
S315200008D093070500A307F4FEB747014093870780D7
S315200008E00347F4FE13170701135707012392E70066
S315200008F013000000B74701409387078083D707007E
S315200009009397070193D7070193F70708E38407FE18
S3152000091013000000130000008320C101032481017D
S315200009201301010267800000130101FD2326110235
S315200009302324810213040103232EA4FCB74700209D
S3152000094083A787F1639A0700B7470020374700201F
S315200009501307470623ACE7F0B747002083A787F1A4
S315200009602326F4FEB747002003A787F18327C4FD7B
S315200009703307F700B75700209387478663FEE700C3
S31520000980EF10C02F130705009307C0002320F700A0
S315200009909307F0FF6F000002B747002003A787F1F7
S315200009A08327C4FD3307F700B747002023ACE7F0C1
S315200009B08327C4FE138507008320C10203248102F6
S315200009C01301010367800000130101FE232E11008D
S315200009D0232C81001304010213000000EFF0DF989E
S315200009E093070500E39C07FEB717024083A68701FD
S315200009F0B71702403747000033E7E60023ACE7008D
S31520000A00B717024003A78701B717024013674700AD
S31520000A1023ACE700B717024003A78701B7170240A8
S31520000A201367170023ACE700B717024003A7870117
S31520000A30B71702401367070223ACE700B717024037
S31520000A4003A78701B71702401367070423ACE70003
S31520000A50B717024083A6C700B717024037470000E2
S31520000A601307070633E7E60023A6E700B717024079
S31520000A7083A6C700B717024037C7FFFF1307F7F94A
S31520000A8033F7E60023A6E700B71701409387478090
S31520000A9003A70700B7170140938747801367070B03
S31520000AA023A0E700B71701409387478003A70700D5
S31520000AB0B7170140938747801367074023A0E700B5
S31520000AC0B7470140938707801307204E2394E700FA
S31520000AD0B747014093870780372700001307C700D1
S31520000AE02396E700B717024003A7C701B7170240AE
S31520000AF01367070123AEE700B717024003A70701D4
S31520000B00B71702401367070123A8E700B71702406B
S31520000B1003A70701B71702401377F7FE23A8E700BC
S31520000B20B717024003A7C701B7170240136707028A
S31520000B3023AEE700B717024003A70701B717024005
S31520000B401367070223A8E700B717024003A7070188
S31520000B50B71702401377F7FD23A8E700B747002011
S31520000B6023AC07F0B7470020938707F12326F4FE2E
S31520000B70B7470020938747062324F4FE6F004001E1
S31520000B808327C4FE138717002326E4FE238007004D
S31520000B900327C4FE832784FEE364F7FEB7470020BD
S31520000BA083A787F083A7470093060000130620003B
S31520000BB09305000013850700EF00504AB747002031
S31520000BC083A787F083A787009306000013062000DB
S31520000BD09305000013850700EF005048B747002013
S31520000BE083A787F083A7C70093060000130620007B
S31520000BF09305000013850700EF0050461300000000
S31520000C008320C101032481011301010267800000B2
S31520000C10130101FF2326110023248100130401015F
S31520000C20130000008320C100032481001301010169
S31520000C3067800000130101FE232E1100232C810062
S31520000C40130401022326A4FE8327C4FE638A070019
S31520000C508325C4FEB7470020138547CBEF00902994
S31520000C60EFF01FFB130000008320C1010324810144
S31520000C701301010267800000130101FE232E1100DB
S31520000C80232C8100130401022326A4FE9307F0FFE0
S31520000C90138507008320C10103248101130101026A
S31520000CA067800000130101FE232E1100232C8100F2
S31520000CB0130401022326A4FE2324B4FE2322C4FE09
S31520000CC09307F0FF138507008320C10103248101C8
S31520000CD01301010267800000130101FE232E11007B
S31520000CE0232C8100130401022326A4FE2324B4FE10
S31520000CF0832784FE3727000023A2E70093070000FE
S31520000D00138507008320C1010324810113010102F9
S31520000D1067800000130101FE232E1100232C810081
S31520000D20130401022326A4FE2324B4FE2322C4FE98
S31520000D3093070000138507008320C1010324810146
S31520000D401301010267800000130101FE232E11000A
S31520000D50232C8100130401022326A4FE93070000FE
S31520000D60138507008320C101032481011301010299
S31520000D7067800000130101FD23261102232481022E
S31520000D8013040103232EA4FC232CB4FC232AC4FC25
S31520000D90832744FD2326F4FE6F00C001832784FDAC
S31520000DA013871700232CE4FC83C70700138507004D
S31520000DB0EFF01FB1832744FD1387F7FF232AE4FCB6
S31520000DC0E39E07FC8327C4FE138507008320C10208
S31520000DD0032481021301010367800000130101FD32
S31520000DE0232611022324810213040103232EA4FCAB
S31520000DF0232CB4FC232AC4FC232604FEEFF05FA692
S31520000E0093070500A305F4FE8347B4FE6382070219
S31520000E10832784FD13871700232CE4FC0347B4FEA5
S31520000E202380E7008327C4FE938717002326F4FE3A
S31520000E30032744FD8327C4FEE312F7FC8327C4FE61
S31520000E40138507008320C1020324810213010103B5
S31520000E5067800000130101FF23261100232481004F
S31520000E601304010193070000138507008320C100A6
S31520000E70032481001301010167800000130101FE94
S31520000E80232E1100232C8100130401022326A4FE05
S31520000E902324B4FE93070000138507008320C10195
S31520000EA00324810113010102678000001307060055
S31520000EB0938806001308050013830500639406240F
S31520000EC0B7470020938747CD63F4C50EB7060100C8
S31520000ED06370D60C9336061093B61600939636009A
S31520000EE0335ED600B387C70183C70700B387D70011
S31520000EF093060002638ED700B386F6403393D5005F
S31520000F00B357F5003317D60033E367003318D500FF
S31520000F1013550701B357A3029315070193D505016E
S31520000F20935608013373A3023386F5021313030184
S31520000F30B3E6660063FAC600B306D70063F4C600BC
S31520000F4063F2E6069387F7FFB386C64033D6A6023A
S31520000F501318080113580801B3F6A602B385C50273
S31520000F60939606013368D800637AB80033080701E0
S31520000F706374B8006374E8181306F6FF93970701A5
S31520000F80B3E7C70013850700938508006780000034
S31520000F90370E000193068001E374C6F5930600011F
S31520000FA06FF01FF49387E7FFB386E6006FF0DFF953
S31520000FB093060000630C0600B70601006378D60688
S31520000FC09336061093B6160093963600B358D6007D
S31520000FD0B387170183C70700B387D700930600029C
S31520000FE06390D7063386C540930810001355070132
S31520000FF0B357A6029315070193D505019356080109
S315200010003376A6023383F50213160601B3E6C6002D
S3152000101063FA6600B306D70063F4660063FAE60C4B
S315200010209387F7FFB38666406FF05FF2B70800013B
S3152000103093068001E37C16F9930600016FF01FF9F1
S315200010403388F64033170601B3D6F500B39505016C
S31520001050B357F5003318050113550701B3D8A60277
S315200010601316070113560601B3E7B700B3F6A60217
S31520001070330316039395060193D60701B3E6B6000C
S3152000108063FA6600B306D70063F4660063F6E604E7
S315200010909388F8FFB3866640B3D5A60293970701D7
S315200010A093D70701B3F6A6023306B6029396060136
S315200010B0B3E7D70063FAC700B307F70063F4C700A6
S315200010C063F2E7029385F5FF939808013386C740BC
S315200010D0B3E8B8006FF09FF19388E8FFB386E60087
S315200010E06FF05FFB9385E5FFB387E7006FF0DFFDC9
S315200010F09387E7FFB386E6006FF0DFF21306E6FF7D
S315200011006FF0DFE763E4D518B707010063F4F60450
S3152000111093B7061093B717009397370037470020E9
S3152000112033D8F600130747CD3307070103470700D7
S31520001130130800023307F70063180703B337C50007
S3152000114093B71700B3B6B600B3E7D70093080000ED
S315200011506FF05FE33707000193078001E3F0E6FCB9
S31520001160930700016FF09FFB3308E840B358E60071
S31520001170B3960601B3E8D80013DE0801B3D6E5001E
S31520001180B3D7C6031393080113530301B39505017F
S315200011903357E5003367B70033160601B3F6C603A7
S315200011A0B30EF3029395060193560701B3E6B600F4
S315200011B063FAD601B386D80063F4D60163FC160B16
S315200011C09387F7FFB386D641B3D5C6031317070116
S315200011D013570701B3F6C6033303B30293960601EA
S315200011E03367D700637A67003387E8006374670044
S315200011F0637817099385F5FF93970701B3E7B7003F
S3152000120033076740939505011313060193D505010E
S3152000121093D807011353030113560601338E650233
S315200012203383680293560E01B385C502B3856500E4
S31520001230B386B600B388C80263F666003706010097
S31520001240B388C80013D60601330616016360C702A9
S31520001250131E0E0193960601135E0E01331505012A
S31520001260B386C601E374D5EEE312C7EE9387F7FF84
S315200012706FF0DFED9387E7FFB38616016FF09FF4DB
S315200012809385E5FF330717016FF01FF793080000DA
S31520001290930700006FF01FCF130806009307050081
S315200012A01387050063940624B7460020938646CD0F
S315200012B063F8C50EB7080100637A160D9338061039
S315200012C093B818009398380033531601B3866600F6
S315200012D083C6060013030002B3861601B308D34063
S315200012E0638C660033971501B356D5003318160163
S315200012F033E7E600B317150113550801B356A702C5
S3152000130013130801135303013377A702B38666022A
S315200013109315070113D707013367B7006370D70208
S315200013203307E800B33507013336D70093B51500E8
S315200013303376B600330606033307E6003307D74075
S31520001340B356A7023377A702B38666021395070121
S3152000135013170701135505013365E5006370D502A0
S315200013603305A80033370501B337D50013371700E7
S31520001370B3F7E700B38707033385A7003305D540C6
S3152000138033551501930500006780000037030001DF
S3152000139093088001E37A66F2930800016FF0DFF28A
S315200013A013070000630C0600370701006374E60884
S315200013B0133706101337170013173700B358E600F4
S315200013C0B386160183C60600B386E600130700021D
S315200013D0B308D740639AE606B386C54093550801FD
S315200013E033D6B602131308011353030113D707018B
S315200013F0B3F6B60233066602939606013367D70024
S315200014006370C7023307E80033350701B336C700D8
S3152000141013351500B3F6A600B38606033387E60018
S315200014203307C740B356B7023377B702B38666028F
S315200014306FF0DFF1B708000113078001E37016F99A
S31520001440130700016FF09FF73318160133D7D50025
S31520001450B3171501B3951501B356D50013550801D9
S31520001460B3E6B600B355A702131E0801135E0E019C
S315200014703377A702B385C5031316070113D70601D1
S315200014803367C7006370B7023307E80033330701B9
S315200014903336B7001333130033766600330606035C
S315200014A03307E6003307B7403356A7029396060163
S315200014B093D606013377A7023306C603131707010F
S315200014C0B3E6E60063F0C602B306D800B3B506015C
S315200014D033B7C60093B515003377B7003307070334
S315200014E0B306D700B386C6406FF05FEF63E6D51A22
S315200014F03708010063FC060593B8061093B8180058
S31520001500939838003748002033D31601130848CD66
S3152000151033086800034808003308180193080002BE
S31520001520631018056374C50063FCB6003307C54015
S3152000153093070700B386D5403337E5003387E64067
S315200015401385070093050700678000003708000110
S3152000155093088001E3F806FB930800016FF09FFAD9
S31520001560B3880841B3961601335306013363D3007B
S3152000157033D70501935E0301B356D703131E030128
S31520001580135E0E01B3971501B3550501B3E5F500BA
S3152000159093D7050133161601331515013377D70373
S315200015A0330FDE0213170701B3E7E70063FAE701FB
S315200015B0B307F30063F4E70163F2670E9386F6FF41
S315200015C0B387E74133D7D7039395050193D5050113
S315200015D0B3F7D703330EEE0293970701B3E5F50071
S315200015E063FAC501B305B30063F4C50163FE650A5A
S315200015F01307F7FF93960601B3E6E600B385C541C8
S3152000160013170701131E06019357060113570701E7
S3152000161093D60601135E0E01B30EC703338EC6039F
S315200016203307F702B386F602B307C70113D70E01B5
S315200016303307F7006376C701B7070100B386F600C4
S3152000164093570701939E0E011317070193DE0E0190
S31520001650B387D7003307D70163E6F500637EE5003D
S31520001660639CF5003306C740B336C700B3866600D1
S3152000167013070600B387D7403307E5403335E50027
S31520001680B385F540B385A540339805013357170137
S315200016903365E800B3D51501678000009386E6FF21
S315200016A0B38767006FF0DFF11307E7FFB3856500A7
S315200016B06FF05FF4130101FC2324C1022326D1021B
S315200016C02328E102232AF102232C0103232E1103CE
S315200016D0138605008325850093068102232E11009B
S315200016E02326D100EF00D01F8320C101130101045E
S315200016F067800000130101FC232AF102B74700206E
S3152000170083A787F02324C1022326D1022322B102F4
S315200017102328E102232C0103232E110383A587000E
S31520001720930641021306050013850700232E110098
S315200017302326D100EF00D01A8320C1011301010412
S315200017406780000083270502130101FE232C8100F8
S31520001750232A910023282101232E1100232631013B
S31520001760032485009304050013890500639407006C
S31520001770EF1000738357C40093F787006386070032
S31520001780832704016394070A930504001385040044
S31520001790EF00003D630C05081305F0FF8320C1010F
S315200017A00324810183244101032901018329C100E6
S315200017B0130101026780000063DA07000327840112
S315200017C063CCE704938765FF6388070483270400B7
S315200017D0138717002320E4002380B700130919007C
S315200017E083278400834509009387F7FF2324F40089
S315200017F0E39405FC63D00704130604009305A000B8
S3152000180013850400EF00C0249307F0FFE306F5F8E4
S315200018101305A0006FF09FF813060400138504003B
S31520001820EF000023E31C35FB6FF01FF79309F0FF51
S315200018306FF01FFB83270400138717002320E40083
S315200018401307A0002380E7006FF09FFCB747002016
S315200018509305050003A587F06FF0DFEE130101FD68
S31520001860B7470020232E310183A987F02324810244
S315200018702322910223202103232C41012326110216
S31520001880232A51011304050013890500130A0600B3
S3152000189093840600638A090083A7090263960700DA
S315200018A013850900EF10C05F930720006308FA0034
S315200018B093372A00638A071863C80418930504001F
S315200018C013850900EF10802B83254403638C0500C4
S315200018D0930744046386F50013850900EF00C03A98
S315200018E0232A04028357C400232C04002322040045
S315200018F093F70708638807008325040113850900E9
S31520001900EF0080388357C40037F7FFFF1307C7352A
S31520001910B3F7E7002316F40093072000630AFA10B2
S315200019209306C10013068100930504001385090060
S31520001930EF10902D8357C400B3E7A7002316F400B9
S31520001940639804068324810013850400EF008043F6
S3152000195013090500938A04006312050C832A81006B
S3152000196063969A0A1305F0FF8357C40023240400C4
S3152000197093E727002316F400930774042320F4002A
S315200019802328F40093071000232AF4008320C102A1
S315200019900324810283244102032901028329C101F0
S315200019A0032A8101832A4101130101036780000074
S315200019B0E30C09F883A7090263960700138509003B
S315200019C0EF10004E930710006318FA008357C400E7
S315200019D0B3E747012316F4008317C400232024010C
S315200019E023282401232A940013F78700630A070477
S315200019F093F7170063820704B3049040232404005E
S31520001A00232C9400130500006FF05FF813850A005D
S31520001A10EF00403713090500E30605F48357C40099
S31520001A2093840A0093E707082316F4006FF09FF8C3
S31520001A30130500006FF05FF3232494006FF09FFCE2
S31520001A40232404006FF01FFC1305F0FF6FF01FF432
S31520001A50130101FE232C8100232A91002326310124
S31520001A60232E1100232821019304050093890500C4
S31520001A701304060063080500832705026394070004
S31520001A80EF100042832784012324F4008357C400E7
S31520001A9093F787006386070083270401639C070268
S31520001AA09305040013850400EF00800B63040502F0
S31520001AB01309F0FF8320C1010324810183244101FE
S31520001AC08329C1001305090003290101130101021D
S31520001AD06780000083270401032504003305F540B1
S31520001AE083274401634AF500930504001385040007
S31520001AF0EF10C008E31E05FA83278400130515009E
S31520001B0013F9F90F9387F7FF2324F40083270400A2
S31520001B10138717002320E4002380370183274401FD
S31520001B20638CA7008357C40093F71700E38407F854
S31520001B30930769FFE39007F89305040013850400D3
S31520001B40EF10C003E30805F66FF09FF6B7470020B5
S31520001B50138605009305050003A587F06FF05FEF58
S31520001B60130101FFB74700202322910093040500AB
S31520001B7003A587F023248100232611001384050062
S31520001B80630805008327050263940700EF104031A0
S31520001B908317C40013F787006312070613F707019C
S31520001BA0631E07001307900023A0E40093E70704B1
S31520001BB02316F4001305F0FF6F00800913F7470082
S31520001BC0630A070283254403638C050093074404B4
S31520001BD06386F50013850400EF00000B232A040218
S31520001BE08357C400032704012322040093F7B7FD7B
S31520001BF02320E40093E787002316F40083270401BB
S31520001C00639007028327C4001307002093F7072851
S31520001C106388E7009305040013850400EF109007FE
S31520001C208317C40013F71700630E07020327440126
S31520001C30232404003307E040232CE4000327040177
S31520001C40130500006316070013F70708E31007F6CD
S31520001C508320C10003248100832441001301010154
S31520001C606780000013F7270093060000631407001F
S31520001C70832644012324D4006FF05FFCB74700205D
S31520001C8003A587F067800000638C050E83A7C5FF38
S31520001C90130101FE232C8100232E11001384C5FF7E
S31520001CA063D407003304F4002326A100EF00003498
S31520001CB037470020832787050325C100639E070039
S31520001CC023220400232C8704032481018320C101BD
S31520001CD0130101026F00C0316374F402032604006D
S31520001CE0B306C400639AD70083A6070083A74700DC
S31520001CF0B386C6002320D4002322F4006FF09FFC75
S31520001D001387070083A7470063840700E37AF4FE5E
S31520001D10832607003306D7006318860203260400AD
S31520001D20B386C6002320D7003306D700E39EC7F824
S31520001D3003A6070083A74700B306D6002320D700B3
S31520001D402322F7006FF05FF86378C4009307C00082
S31520001D502320F5006FF05FF703260400B306C400C6
S31520001D60639AD70083A6070083A74700B386C600D9
S31520001D702320D4002322F400232287006FF0DFF4EF
S31520001D8067800000B74700209305050003A587F06C
S31520001D906F00C009B74700209305050003A587F00B
S31520001DA06FF09FEE130101FF2324810037440020AA
S31520001DB08327440523229100232021012326110075
S31520001DC01309050093840500639807009305000016
S31520001DD0EF10D03F232AA40493850400130509009D
S31520001DE0EF10D03E9304F0FF631295021304F0FF28
S31520001DF08320C100130504000324810083244100AD
S31520001E000329010013010101678000001304350036
S31520001E101374C4FFE30E85FCB305A4401305090023
S31520001E20EF10D03AE31695FC6FF05FFC130101FE2C
S31520001E30232A91009384350093F4C4FF232E1100A6
S31520001E40232C81002328210123263101232441012B
S31520001E50938484009307C00063F4F40093840700FE
S31520001E6063C4040063F8B4029307C0002320F5007E
S31520001E70130500008320C10103248101832441012D
S31520001E80032901018329C100032A810013010102CC
S31520001E906780000013090500B7490020EF000015F0
S31520001EA083A789051384070063100408938504001B
S31520001EB013050900EFF01FEF9307F0FF1304050049
S31520001EC06312F51203A48905930704006392070E93
S31520001ED063000410032A040093050000130509007B
S31520001EE0330A4401EF10902E6314AA0E83270400B0
S31520001EF013050900B384F44093850400EFF09FEAAC
S31520001F009307F0FF6306F50C83270400B387970039
S31520001F102320F40083A7890503A747006310070A37
S31520001F2023AC09046F00400383260400B386964041
S31520001F3063CA06061307B000637AD70423209400E9
S31520001F40330794006390870423ACE9048327440075
S31520001F502320D7002322F70013050900EF004009AC
S31520001F601305B40093074400137585FF3307F54026
S31520001F70E302F5F03304E400B387A7402320F400FE
S31520001F806FF05FEF23A2E7006FF05FFC03274400AA
S31520001F906396870023ACE9046FF01FFC23A2E700B9
S31520001FA06FF09FFB93070400032444006FF0DFEFDC
S31520001FB01384070083A747006FF05FF1138707009C
S31520001FC083A74700E39C87FE232207006FF0DFF8F4
S31520001FD09307C0002320F90013050900EF004001F4
S31520001FE06FF01FE9232095006FF01FF76780000030
S31520001FF067800000832786009387F7FF2324F60057
S3152000200063DC07000327860163C6E700938765FF25
S31520002010639407006FF0DFA383270600138505006E
S31520002020138717002320E6002380B700678000006F
S31520002030130101FE232C8100232A9100232821014C
S315200020402326310123244101232E11009309050063
S31520002050138A050013040600B304D6001309F0FF03
S3152000206063169400130500006F00C0018345040029
S3152000207013060A0013850900EFF0DFF71304140096
S31520002080E31025FF8320C10103248101832441011C
S31520002090032901018329C100032A810013010102BA
S315200020A06780000083278600130101FF2324810017
S315200020B0232611001304060063800702EF005064F4
S315200020C0232404008320C10023220400032481004A
S315200020D01301010167800000130500006FF09FFEC9
S315200020E0130101F52324810A2322910A232E310983
S315200020F0232C41092326110A2320210B232A5109A7
S315200021002328610923267109232481092322910981
S31520002110930905009384050013040600138A06001C
S31520002120630805008327050263940700EF005057D4
S3152000213083D7C40093F78700638A071083A7040117
S315200021406386071093070002A30CF102232E410198
S3152000215093070003374A0020232A0102230DF102A8
S31520002160930AF0FF130A4ADD930B1000130BA0000D
S31520002170130C040083470C00B33CF0009387B7FD93
S31520002180B337F000B3FCFC0063960C10B3068C400A
S3152000219063068C0213060400938504001385090048
S315200021A02326D100EFF0DFE863005529832741037A
S315200021B08326C100B387D700232AF10283470C0068
S315200021C06384072613041C00232001022326010210
S315200021D02322510323240102A3010106232C0106F5
S315200021E0834504001306500013050A00EF10004B28
S315200021F083270102930614006312050A13F70701C9
S315200022006306070013070002A301E10613F7870000
S31520002210630607001307B002A301E1060346040084
S315200022201307A0026308E6088327C102930600006D
S315200022301306900003470400130707FD6372E60E9A
S31520002240638806082326F1026F0080089385040020
S3152000225013850900EFF0DF90E30605EE1305F0FF86
S315200022608320C10A0324810A8324410A0329010AFF
S315200022708329C109032A8109832A4109032B0109DC
S31520002280832BC108032C8108832C41081301010BE1
S3152000229067800000130C1C006FF0DFED330545410D
S315200022A03395AB003365F5002320A1021384060085
S315200022B06FF01FF30327C10113064700032707000A
S315200022C0232EC100634407042326E102138406005B
S315200022D0034704009307E002631EF7060347140032
S315200022E09307A0026318F7048327C101130424006F
S315200022F01387470083A70700232EE10063D4070036
S315200023009307F0FF2322F1026F00C0043307E04059
S3152000231093E727002326E1022320F1026FF01FFB1B
S31520002320B38767031304140093061000B387E700EE
S315200023306FF05FF0130414002322010293070000BC
S315200023409306900003470400130707FD63F8E60889
S31520002350E39A0CFA83450400374C0020130630001C
S315200023601305CCDDEF1080336302050283270102BB
S31520002370130CCCDD33058541130700043317A70062
S31520002380B3E7E700130414002320F1028345040079
S315200023903745002013066000130505DE230CB10225
S315200023A0EF10C02F630C050893070000639A0704FB
S315200023B0032701028327C10113770710630A070247
S315200023C093874700232EF10083274103130414002B
S315200023D0B3872701232AF1026FF09FD9B3876703BA
S315200023E013041400930C1000B387E7006FF09FF5D9
S315200023F09387770093F787FF938787006FF09FFC7B
S31520002400B72600201307C10193860603138604000E
S31520002410930501021385090097000000E7000000DC
S3152000242013090500E31255FB83D7C40093F707046D
S31520002430E39607E2032541036FF09FE2B7260020CB
S315200024401307C10193860603138604009305010230
S3152000245013850900EF00401D6FF09FFCB747002051
S3152000246093060600138605009305050003A587F04D
S315200024706FF01FC7130101FD232E310183A705012C
S315200024809309070003A78500232481022320210323
S31520002490232861012326710123261102232291027A
S315200024A0232C4101232A5101130B05001384050017
S315200024B013090600938B060063D4E70093070700F1
S315200024C02320F90003473404630607009387170087
S315200024D02320F9008327040093F707026388070067
S315200024E083270900938727002320F90083240400EB
S315200024F093F46400639E0400130A9401930AF0FF88
S315200025008327C40003270900B387E74063C4F40880
S31520002510832704008346340493F70702B336D0009A
S315200025206392070C1306340493850B0013050B00E6
S31520002530E78009009307F0FF630AF5068327040066
S31520002540130740009304000093F76700639EE7009B
S31520002550832709008324C400B384F44093C7F4FF7F
S3152000256093D7F741B3F4F4008327840003270401AB
S315200025706356F700B387E740B384F40013090000DD
S315200025801304A401130AF0FF639024091305000025
S315200025906F0000029306100013060A0093850B00B5
S315200025A013050B00E7800900631A55031305F0FF96
S315200025B08320C102032481028324410203290102CC
S315200025C08329C101032A8101832A4101032B0101A9
S315200025D0832BC1001301010367800000938414003C
S315200025E06FF01FF23307D40013060003A301C704BC
S315200025F00347540493871600B307F40093862600F6
S31520002600A381E7046FF01FF293061000130604005F
S3152000261093850B0013050B00E7800900E30845F9B5
S31520002620130919006FF05FF6130101FC232C8102B8
S31520002630232A91022324410323225103232E11020C
S31520002640232821032326310383C78501938406008B
S3152000265093068007130A050013840500930A0600D3
S3152000266063EEF600930620061386350463ECF60027
S315200026706382072893068005638ED72013092404D6
S315200026806F0000049386D7F993F6F60F9305500151
S31520002690E3E6D5FEB745002093962600938505E10F
S315200026A0B386B60083A60600678006008327070048
S315200026B0130924049386470083A707002320D70005
S315200026C02301F404930710006F008026832704005B
S315200026D00325070093F6070893054500638606023F
S315200026E0832705002320B700B746002063D80700BC
S315200026F01307D002B307F040A301E404938686DED5
S315200027001307A0006F00800693F6070483270500B1
S315200027102320B700E38A06FC9397070193D7074146
S315200027206FF09FFC832504008326070013F5050818
S3152000273083A7060093864600631A050093F50504D1
S31520002740638605009397070193D707012320D700B7
S3152000275083458401B74600201307F006938686DE5C
S315200027606398E51413078000A3010404832544001D
S315200027702324B40063CE050003250400B3E5B70087
S31520002780130906001375B5FF2320A40063840502F0
S3152000279013090600B3F5E7021309F9FFB385B6005E
S315200027A083C505002300B90093850700B3D7E70248
S315200027B0E3F2E5FE930780006314F7028327040003
S315200027C093F71700638E070003274400832704012D
S315200027D063C8E70093070003A30FF9FE1309F9FF67
S315200027E0330626412328C4001387040093860A0053
S315200027F01306C1019305040013050A00EFF09FC7D5
S315200028009309F0FF631C35131305F0FF8320C103E2
S315200028100324810383244103032901038329C1025D
S31520002820032A8102832A41021301010467800000E2
S315200028308327040093E707022320F400B7460020ED
S31520002840930780079386C6DFA302F404832504003A
S315200028500325070013F805088327050013054500FF
S31520002860631A080013F80504630608009397070106
S3152000287093D707012320A70013F715006306070047
S3152000288093E505022320B400638C0700130700019B
S315200028906FF09FEDB7460020938686DE6FF0DFFA55
S315200028A0032704001377F7FD2320E4006FF01FFEB3
S315200028B01307A0006FF05FEB832604008327070031
S315200028C08325440113F8060813854700630A080088
S315200028D02320A70083A7070023A0B7006F0080014D
S315200028E02320A70093F6060483A70700E38606FEA7
S315200028F02390B70023280400130906006FF0DFEEAB
S31520002900832707000326440093050000938647008B
S315200029102320D70003A9070013050900EF0010584C
S3152000292063060500330525412322A400832744009E
S315200029302328F400A30104046FF01FEB832604016F
S315200029401306090093850A0013050A00E780040090
S31520002950E30C35EB8327040093F7270063960704DF
S315200029608327C1010325C400E352F5EA1385070036
S315200029706FF0DFE99306100093850A0013050A001D
S315200029802326C100E7800400E30035E90326C100C1
S31520002990130919008327C4000327C101B387E74021
S315200029A0E34AF9FC6FF0DFFB1309000013069401DC
S315200029B06FF05FFE8397C500130101FE232C810073
S315200029C0232A9100232E11002328210113F78700A3
S315200029D093040500138405006312071203A745001C
S315200029E06346E00003A705046356E0100327C402EC
S315200029F06302071003A904009396370123A004005D
S31520002A0063DC060A032644058357C40093F7470070
S31520002A10638E0700832744003306F640832744034A
S31520002A2063860700832704043306F6408327C402FF
S31520002A30832504029306000013850400E78007001F
S31520002A401307F0FF8317C4006312E50283A6040070
S31520002A501307D001636CD70E3707402013071700E2
S31520002A603357D700137717006302070E0327040195
S31520002A70232204002320E40013973701635C070018
S31520002A809307F0FF6316F50083A7040063940700FD
S31520002A90232AA4048325440323A02401638C05044C
S31520002AA0930744046386F50013850400EFF0CF9D59
S31520002AB0232A04026F000004832504021306000063
S31520002AC09306100013850400E70007009307F0FF24
S31520002AD013060500E31AF5F283A70400E38607F23E
S31520002AE0138737FE630607009387A7FE639E0704B6
S31520002AF023A02401130500006F00000603A605018C
S31520002B00E30A06FE83A6050093F7370023A0C50037
S31520002B103389C640130700006394070003A74501C5
S31520002B202324E400E35820FD83278402832504021E
S31520002B3093060900138504002326C100E7800700B9
S31520002B400326C1006346A0028357C40093E7070407
S31520002B502316F4001305F0FF8320C101032481010D
S31520002B60832441010329010113010102678000002A
S31520002B703306A6003309A9406FF0DFFA83A70501C3
S31520002B80638E0704130101FE232C8100232E1100DE
S31520002B9013040500630C05008327050263980700CC
S31520002BA02326B100EF00C02F8325C1008397C500DF
S31520002BB0638C070013050400032481018320C101CF
S31520002BC0130101026FF01FDF8320C101032481015D
S31520002BD013050000130101026780000013050000A1
S31520002BE06780000093050500631005023746002024
S31520002BF0B7350020374500201306C6EF9385C5B7A5
S31520002C00130505EB6F00C075B747002003A587F0B5
S31520002C106FF0DFF61305000067800000130101FF47
S31520002C202324810023261100130405002316B50052
S31520002C302317C50023200500232205002324050091
S31520002C402322050623280500232A0500232C050018
S31520002C5013068000930500001305C505EF00D06418
S31520002C60B7370020938707562322F402B737002070
S31520002C709387875B2324F402B73700209387C763A3
S31520002C802326F402B7370020938747698320C100A3
S31520002C90232084022328F402032481001301010146
S31520002CA06780000037460020B735002037450020D2
S31520002CB01306C6EF9385C5B7130505EB6F00406A6B
S31520002CC083254500130101FFB747002023248100F7
S31520002CD0232611009387C7F1130405006384F500AA
S31520002CE0EFF0DFE983258400B7470020938747F874
S31520002CF06386F50013050400EFF05FE88325C40022
S31520002D00B74700209387C7FE638CF50013050400A0
S31520002D10032481008320C100130101016FF01FE607
S31520002D208320C10003248100130101016780000074
S31520002D30B737002037450020130101FF3747002011
S31520002D40938747CA13060000930540001305C5F173
S31520002D5023261100232EF704EFF05FEC37450020E1
S31520002D601306100093059000130545F8EFF01FEBAE
S31520002D708320C1003745002013062000930520013B
S31520002D801305C5FE130101016FF05FE9130500006D
S31520002D9067800000B747002083A7C705130101FFFE
S31520002DA023202101232611002324810023229100A0
S31520002DB01309050063940700EFF09FF7B74400203E
S31520002DC09384C4EF03A4840083A744009387F7FF6A
S31520002DD063D8070203A404006310040C9305C01AE9
S31520002DE013050900EFF08F8413040500631405080A
S31520002DF023A004009307C0002320F9006F0040059C
S31520002E000317C40063140706B707FFFF938717004D
S31520002E102322040623200400232204002324040062
S31520002E202326F40023280400232A0400232C04004C
S31520002E3013068000930500001305C405EF00D04655
S31520002E40232A0402232C0402232404042326040414
S31520002E508320C1001305040003248100832441003C
S31520002E600329010013010101678000001304840671
S31520002E706FF0DFF593074000232005002322F5009D
S31520002E801305C5002324A4001306001A9305000089
S31520002E90EF00904123A08400930404006FF09FF27A
S31520002EA08327050263900702B7370020938707CC54
S31520002EB02320F502B747002083A7C70563940700A0
S31520002EC06FF01FE7678000006780000067800000C2
S31520002ED037460020B73500201306C6EF938545C137
S31520002EE0130500006F00C04737460020B735002085
S31520002EF01306C6EF9385C5D8130500006F0040461C
S31520002F008327860063960704130500006780000068
S31520002F10130500008320C103032481038324410376
S31520002F20032901038329C102032A8102832A41023C
S31520002F30032B0102832BC101032C8101832C410128
S31520002F40032D0101832DC1001301010467800000B8
S31520002F5083D7C500130101FC232C810223263103CC
S31520002F6023225103232E1102232A910223282103EF
S31520002F702324410323206103232E7101232C810165
S31520002F80232A91012328A1012326B10193F7870043
S31520002F90930A060013840500930905006382070E31
S31520002FA083A70501638E070C8317C40003AA0A00B2
S31520002FB013F72700631C071293F71700638C071C6F
S31520002FC0930B000013050000130B000013090000EB
S31520002FD06306093263120502130609009305A00051
S31520002FE013050B00EF00806B930B19006306050099
S31520002FF013051500B30B6541138C0B00637479011F
S31520003000130C09008326440183248400032504002D
S3152000301083270401B384960063FCA72E63DA842FEA
S3152000302093050B0013860400EF0050248327040029
S315200030309305040013850900B38797002320F40025
S31520003040EFF0DFB363100514B38B9B40130510001C
S31520003050639A0B009305040013850900EFF01FB255
S315200030606312051283A78A00B387974023A4FA0028
S31520003070E38007EA330B9B00330999406FF05FF535
S315200030809305040013850900EFE09FADE30E05F0DC
S315200030901305F0FF6FF01FE803290A0083244A0076
S315200030A0130A8A00E38A04FE9386040063769B0053
S315200030B0B7060080938606C08327840283250402F0
S315200030C01306090013850900E7800700635CA00A40
S315200030D083A78A00B387A74023A4FA00E38A07E2DE
S315200030E03309A900B384A4406FF0DFFB370B0080BF
S315200030F01309000093040000130B0BC06FF09FFA16
S31520003100032B0A0083244A00130A8A00E38A04FE5A
S315200031108317C400032D84000325040013F707201A
S3152000312063080714930D0D0063ECA41313F70748E7
S31520003130630C0712032944018325040133098903FB
S31520003140B30DB54013871D00330797003349990304
S31520003150130609006376E900130907001306070022
S3152000316093F707406388070C93050600138509002B
S31520003170EFE0DFCB130D0500631C05029307C000AB
S3152000318023A0F9008357C40093E707042316F4000D
S315200031906FF01FF0B70B0080130B000093040000A4
S315200031A0938BFBFF130C3000930C20006FF01FF65F
S315200031B08325040113860D00EF00D0108357C40029
S315200031C093F7F7B793E707082316F4002328A401FB
S315200031D0232A2401330DBD013309B9412320A4013B
S315200031E023242401138D040013890400938D0400E5
S315200031F00325040013860D0093050B00EF0010072E
S3152000320083278400B387A7412324F400832704005F
S31520003210B387B7012320F40083A78A00B387274109
S3152000322023A4FA00E38607CE330B2B01B384244173
S315200032306FF0DFED13850900EF00100B130D05006D
S31520003240E31605F88325040113850900EFE0DFA3C3
S315200032508357C40093F7F7F72316F4006FF01FF295
S31520003260138D04006FF05FF8138904006FF05FF888
S315200032708327040163E6A7008326440163F6D4046A
S3152000328013090D0063F4A401138904001306090031
S3152000329093050B00EF00807D83278400032704001D
S315200032A0B3872741330727012324F4002320E40092
S315200032B0E39407F69305040013850900EFF01F8CAD
S315200032C0E30C05F46FF01FEC9387040063F49B0076
S315200032D093870B00B3C7D7020327840283250402F2
S315200032E013060B0013850900B386D702E7000700F3
S315200032F013090500E342A0F26FF0DFE8032B0A0072
S3152000330003294A0013050000130A8A006FF05FCCD8
S315200033106342DC02832784028325040213060B0002
S3152000332013850900E780070093040500E34EA0D02B
S315200033306FF05FE513060C0093050B00EF0000739A
S315200033408327840093040C00B38787412324F40049
S3152000335083270400B38787012320F4006FF0DFCE94
S31520003360130101FD2324810223202103232E310171
S31520003370232C4101232A51012326110223229102C3
S31520003380130A0500938A0500130400001309100090
S315200033909309F0FF83258600832446009384F4FF57
S315200033A063DA040203260600E31606FE8320C10222
S315200033B01305040003248102832441020329010208
S315200033C08329C101032A8101832A410113010103B3
S315200033D06780000083D7C5006374F9028397E500F0
S315200033E06380370313050A002326C1002324B10076
S315200033F0E7800A000326C100832581003364A400E8
S31520003400938585066FF09FF9130101F8232C810619
S31520003410138405008395E500232A9106232E1106A1
S315200034209304060063DA05028357C40093F707085E
S31520003430639C0704130700408320C10703248107E8
S3152000344023A0F60023A0E4001305000083244107EF
S315200034501301010867800000130681012326D1008D
S31520003460EF0080428326C100E34005FC8327C1018B
S3152000347037F70000B3F7E70037E7FFFFB387E7002A
S3152000348093B717006FF01FFB930700001307000484
S315200034906FF09FFA03D7C500130101FD2324810293
S315200034A02326110223229102137727001384050075
S315200034B063060702930774042320F4002328F400EC
S315200034C093071000232AF4008320C10203248102DB
S315200034D08324410213010103678000009306C10182
S315200034E01306810193040500EFF01FF28325810165
S315200034F0138504002326B100EFE05F938317C400F1
S315200035008325C100631E050013F70720E31E07FA73
S3152000351093F7C7FF93E727002316F4006FF09FF970
S3152000352093E707082316F4008327C1012320A4006C
S315200035302328A400232AB400E38807F88315E4008F
S3152000354013850400EF004039E30005F88357C400D3
S3152000355093F7C7FF93E717002316F4006FF0DFF603
S31520003560130101FF23248100138405008395E500C0
S3152000357023261100EF0040406340050283274405BF
S31520003580B387A700232AF4048320C10003248100E3
S3152000359013010101678000008357C40037F7FFFF3E
S315200035A01307F7FFB3F7E7002316F4006FF0DFFDEC
S315200035B0130500006780000083D7C500130101FEB4
S315200035C0232C8100232A910023282101232631013F
S315200035D0232E110093F7071093040500138405008A
S315200035E01309060093890600638A07008395E50080
S315200035F09306200013060000EF00C0328357C40054
S3152000360037F7FFFF1307F7FFB3F7E7008315E4004B
S315200036102316F400032481018320C1019386090027
S31520003620130609008329C10003290101138504001B
S3152000363083244101130101026F00003E130101FFA3
S3152000364023248100138405008395E5002326110099
S31520003650EF00402D1307F0FF8317C4006312E50225
S315200036601307058013070780B3F7E7002316F40036
S315200036708320C1000324810013010101678000001B
S3152000368037170000B3E7E7002316F400232AA40423
S315200036906FF01FFE8395E5006F00800293F5F50F0E
S315200036A03306C5006316C5001305000067800000B9
S315200036B083470500E38CB7FE130515006FF09FFEC8
S315200036C0130101FF23248100232291003744002087
S315200036D093040500138505002326110023200406E4
S315200036E0EFD08FD99307F0FF6318F50083270406E0
S315200036F06384070023A0F4008320C10003248100F3
S31520003700832441001301010167800000B747002090
S3152000371083A787F06388A7168327C501130101FEB7
S31520003720232C8100232E1100232A910023282101F6
S3152000373023263101130405006384070883A7C700E5
S31520003740638C070293040000130900088327C40131
S3152000375083A7C700B387970083A50700639805044E
S3152000376093844400E39424FF8327C40113050400B3
S3152000377083A5C700EFE04FD18327C40183A50700A7
S315200037806386050013050400EFE00FD08327C401EC
S3152000379083A487006386040293850400130504002E
S315200037A083A40400EFE04FCE6FF0DFFE83A905006F
S315200037B013050400EFE04FCD938509006FF01FFA43
S315200037C0832544016386050013050400EFE0CFCB73
S315200037D08325C4016386050013050400EFE0CFCAE4
S315200037E0832504036386050013050400EFE0CFC993
S315200037F0832544036386050013050400EFE0CFC844
S31520003800832584036386050013050400EFE0CFC7F4
S31520003810832584046386050013050400EFE0CFC6E4
S31520003820832544046386050013050400EFE0CFC515
S315200038308325C4026386050013050400EFE0CFC488
S3152000384083270402638207021305040003248101EF
S315200038508320C10183244101032901018329C10059
S3152000386013010102678007008320C101032481011F
S3152000387083244101032901018329C1001301010287
S315200038806780000067800000130101FF2324810068
S315200038902322910037440020930405001385050058
S315200038A0930506002326110023200406EFD0CFC25D
S315200038B09307F0FF6318F500832704066384070047
S315200038C023A0F4008320C100032481008324410027
S315200038D01301010167800000130101FF23248100E9
S315200038E02322910037440020930405001385050008
S315200038F02326110023200406EFD00FC59307F0FFDF
S315200039006318F500832704066384070023A0F400C8
S315200039108320C10003248100832441001301010177
S3152000392067800000130101FF2324810023229100D8
S3152000393037440020930405001385050093050600EF
S31520003940138606002326110023200406EFD08FBC01
S315200039509307F0FF6318F5008327040663840700A6
S3152000396023A0F4008320C100032481008324410086
S315200039701301010167800000130101FF2324810048
S315200039802322910037440020930405001385050067
S31520003990930506001386060023261100232004061D
S315200039A0EFD0CFC39307F0FF6318F50083270406F3
S315200039B06384070023A0F4008320C1000324810030
S315200039C0832441001301010167800000130101FFD8
S315200039D023248100232291003744002093040500EC
S315200039E0138505002326110023200406EFC0DFF3EC
S315200039F09307F0FF6318F500832704066384070006
S31520003A0023A0F4008320C1000324810083244100E5
S31520003A101301010167800000130101FF23248100A7
S31520003A2023229100374400209304050013850500C6
S31520003A30930506001386060023261100232004067C
S31520003A40EFD04FB39307F0FF6318F50083270406E2
S31520003A506384070023A0F4008320C100032481008F
S31520003A60832441001301010167800000630C0602D4
S31520003A701303050093061000636AB5009306F0FF52
S31520003A801307F6FF3303E300B385E50083830500C0
S31520003A90230073001306F6FF3303D300B385D50046
S31520003AA0E31606FE6780000013030500630A06007E
S31520003AB02300B3001306F6FF13031300E31A06FED2
S31520003AC06780000013030500630E0600838305004C
S31520003AD0230073001306F6FF1303130093851500C6
S31520003AE0E31606FE67800000639605009305060030
S31520003AF06FE0CFB3130101FE232C81002324410163
S31520003B00232E1100232A9100232821012326310167
S31520003B1013040600130A050063180602EFE0CF9689
S31520003B20930400008320C10103248101032901019C
S31520003B308329C100032A81001385040083244101BF
S31520003B40130101026780000093840500EF008005C1
S31520003B50130905006366850093571500E3E487FC87
S31520003B609305040013050A00EFE04FAC9309050006
S31520003B7063160500938409006FF0DFFA130604002C
S31520003B8063748900130609009385040013850900D0
S31520003B90EFF05FF39385040013050A00EFE0CF8E64
S31520003BA06FF05FFD83A7C5FF1385C7FF63D80700A6
S31520003BB0B385A50083A705003305F50067800000BF
S31520003BC054657374696E67206D656D6F72792065B3
S31520003BD078657263697365733A000000417373698F
S31520003BE0676E6D656E7420313A202E2E2E200000D1
S31520003BF02050617373656400204661696C6564209A
S31520003C0028676F74202564290A00000041737369B0
S31520003C10676E6D656E7420323A202E2E2E2000009F
S31520003C20204661696C65640041737369676E6D65D2
S31520003C306E7420333A202E2E2E2000004173736995
S31520003C40676E6D656E7420343A202E2E2E2000006D
S31520003C5041737369676E6D656E7420353A202E2E1A
S31520003C602E20000041737369676E6D656E74203671
S31520003C703A202E2E2E20000041737369676E6D65E3
S31520003C806E7420373A202E2E2E2000000A596F758A
S31520003C9020706173736564202564206F7574206FAE
S31520003CA06620372061737369676E6D656E74732E37
S31520003CB00A0000000A50726F6772616D206578698C
S31520003CC0746564207769746820636F646520256451
S31520003CD00A00000000010202030303030404040493
S31520003CE00404040405050505050505050505050562
S31520003CF00505050506060606060606060606060642
S31520003D00060606060606060606060606060606062D
S31520003D100606060607070707070707070707070711
S31520003D2007070707070707070707070707070707FD
S31520003D3007070707070707070707070707070707ED
S31520003D4007070707070707070707070707070707DD
S31520003D5007070707080808080808080808080808C1
S31520003D6008080808080808080808080808080808AD
S31520003D70080808080808080808080808080808089D
S31520003D80080808080808080808080808080808088D
S31520003D90080808080808080808080808080808087D
S31520003DA0080808080808080808080808080808086D
S31520003DB0080808080808080808080808080808085D
S31520003DC0080808080808080808080808080808084D
S31520003DD008080808232D302B20000000686C4C00B2
S31520003DE0656667454647000030313233343536370D
S31520003DF038394142434445460000000030313233D1
S31520003E0034353637383961626364656600000000F0
S31520003E10AC260020CC2600207C2600207C260020F4
S31520003E207C2600207C260020CC2600207C26002014
S31520003E307C2600207C2600207C260020B828002016
S31520003E4024270020302800207C2600207C260020E5
S31520003E50002900207C260020242700207C26002004
S30D20003E607C2600203C280020EE
S31520003E681000000000000000037A5200017C0101C6
S31520003E781B0C0200100000001800000028D0FFFFCD
S31520003E88EC03000000000000100000002C000000D9
S31120003E9800D4FFFF1C0400000000000006
S31520003EA400000000FB000000D08A00000000000093
S31520003EB41C3F0020843F0020EC3F0020000000002F
S31520003EC400000000000000000000000000000000C8
S31520003ED400000000000000000000000000000000B8
S31520003EE400000000000000000000000000000000A8
S31520003EF40000000000000000000000000300000095
S30D20003F041C3F0020B03E002006
S70520000000DA
